{
  "contractName": "simpleWallet",
  "abi": [
    {
      "constant": true,
      "inputs": [
        {
          "name": "",
          "type": "uint256"
        }
      ],
      "name": "owners",
      "outputs": [
        {
          "name": "",
          "type": "address"
        }
      ],
      "payable": false,
      "stateMutability": "view",
      "type": "function"
    },
    {
      "constant": true,
      "inputs": [
        {
          "name": "",
          "type": "address"
        }
      ],
      "name": "isOwner",
      "outputs": [
        {
          "name": "",
          "type": "bool"
        }
      ],
      "payable": false,
      "stateMutability": "view",
      "type": "function"
    },
    {
      "constant": true,
      "inputs": [
        {
          "name": "",
          "type": "uint256"
        },
        {
          "name": "",
          "type": "address"
        }
      ],
      "name": "confirmations",
      "outputs": [
        {
          "name": "",
          "type": "bool"
        }
      ],
      "payable": false,
      "stateMutability": "view",
      "type": "function"
    },
    {
      "constant": true,
      "inputs": [
        {
          "name": "",
          "type": "uint256"
        }
      ],
      "name": "transactions",
      "outputs": [
        {
          "name": "destination",
          "type": "address"
        },
        {
          "name": "value",
          "type": "uint256"
        },
        {
          "name": "data",
          "type": "bytes"
        },
        {
          "name": "executed",
          "type": "bool"
        }
      ],
      "payable": false,
      "stateMutability": "view",
      "type": "function"
    },
    {
      "constant": true,
      "inputs": [],
      "name": "transactionCount",
      "outputs": [
        {
          "name": "",
          "type": "uint256"
        }
      ],
      "payable": false,
      "stateMutability": "view",
      "type": "function"
    },
    {
      "constant": true,
      "inputs": [],
      "name": "contractOwner",
      "outputs": [
        {
          "name": "",
          "type": "address"
        }
      ],
      "payable": false,
      "stateMutability": "view",
      "type": "function"
    },
    {
      "constant": true,
      "inputs": [],
      "name": "MAX_OWNER_COUNT",
      "outputs": [
        {
          "name": "",
          "type": "uint256"
        }
      ],
      "payable": false,
      "stateMutability": "view",
      "type": "function"
    },
    {
      "constant": true,
      "inputs": [],
      "name": "required",
      "outputs": [
        {
          "name": "",
          "type": "uint256"
        }
      ],
      "payable": false,
      "stateMutability": "view",
      "type": "function"
    },
    {
      "inputs": [
        {
          "name": "_maxowners",
          "type": "uint256"
        },
        {
          "name": "_owners",
          "type": "address[]"
        },
        {
          "name": "_required",
          "type": "uint256"
        }
      ],
      "payable": false,
      "stateMutability": "nonpayable",
      "type": "constructor"
    },
    {
      "payable": true,
      "stateMutability": "payable",
      "type": "fallback"
    },
    {
      "anonymous": false,
      "inputs": [
        {
          "indexed": true,
          "name": "sender",
          "type": "address"
        },
        {
          "indexed": true,
          "name": "transactionId",
          "type": "uint256"
        }
      ],
      "name": "Confirmation",
      "type": "event"
    },
    {
      "anonymous": false,
      "inputs": [
        {
          "indexed": true,
          "name": "sender",
          "type": "address"
        },
        {
          "indexed": true,
          "name": "transactionId",
          "type": "uint256"
        }
      ],
      "name": "Revocation",
      "type": "event"
    },
    {
      "anonymous": false,
      "inputs": [
        {
          "indexed": true,
          "name": "transactionId",
          "type": "uint256"
        }
      ],
      "name": "Submission",
      "type": "event"
    },
    {
      "anonymous": false,
      "inputs": [
        {
          "indexed": true,
          "name": "transactionId",
          "type": "uint256"
        }
      ],
      "name": "Execution",
      "type": "event"
    },
    {
      "anonymous": false,
      "inputs": [
        {
          "indexed": true,
          "name": "transactionId",
          "type": "uint256"
        }
      ],
      "name": "ExecutionFailure",
      "type": "event"
    },
    {
      "anonymous": false,
      "inputs": [
        {
          "indexed": true,
          "name": "sender",
          "type": "address"
        },
        {
          "indexed": false,
          "name": "value",
          "type": "uint256"
        }
      ],
      "name": "Deposit",
      "type": "event"
    },
    {
      "anonymous": false,
      "inputs": [
        {
          "indexed": true,
          "name": "owner",
          "type": "address"
        }
      ],
      "name": "OwnerAddition",
      "type": "event"
    },
    {
      "anonymous": false,
      "inputs": [
        {
          "indexed": true,
          "name": "owner",
          "type": "address"
        }
      ],
      "name": "OwnerRemoval",
      "type": "event"
    },
    {
      "anonymous": false,
      "inputs": [
        {
          "indexed": false,
          "name": "required",
          "type": "uint256"
        }
      ],
      "name": "RequirementChange",
      "type": "event"
    },
    {
      "constant": false,
      "inputs": [
        {
          "name": "owner",
          "type": "address"
        }
      ],
      "name": "addOwner",
      "outputs": [],
      "payable": false,
      "stateMutability": "nonpayable",
      "type": "function"
    },
    {
      "constant": false,
      "inputs": [
        {
          "name": "owner",
          "type": "address"
        }
      ],
      "name": "removeOwner",
      "outputs": [],
      "payable": false,
      "stateMutability": "nonpayable",
      "type": "function"
    },
    {
      "constant": false,
      "inputs": [
        {
          "name": "owner",
          "type": "address"
        },
        {
          "name": "newOwner",
          "type": "address"
        }
      ],
      "name": "replaceOwner",
      "outputs": [],
      "payable": false,
      "stateMutability": "nonpayable",
      "type": "function"
    },
    {
      "constant": false,
      "inputs": [
        {
          "name": "_required",
          "type": "uint256"
        }
      ],
      "name": "changeRequirement",
      "outputs": [],
      "payable": false,
      "stateMutability": "nonpayable",
      "type": "function"
    },
    {
      "constant": false,
      "inputs": [
        {
          "name": "destination",
          "type": "address"
        },
        {
          "name": "value",
          "type": "uint256"
        },
        {
          "name": "data",
          "type": "bytes"
        }
      ],
      "name": "submitTransaction",
      "outputs": [
        {
          "name": "transactionId",
          "type": "uint256"
        }
      ],
      "payable": false,
      "stateMutability": "nonpayable",
      "type": "function"
    },
    {
      "constant": false,
      "inputs": [
        {
          "name": "transactionId",
          "type": "uint256"
        }
      ],
      "name": "confirmTransaction",
      "outputs": [],
      "payable": false,
      "stateMutability": "nonpayable",
      "type": "function"
    },
    {
      "constant": false,
      "inputs": [
        {
          "name": "transactionId",
          "type": "uint256"
        }
      ],
      "name": "revokeConfirmation",
      "outputs": [],
      "payable": false,
      "stateMutability": "nonpayable",
      "type": "function"
    },
    {
      "constant": false,
      "inputs": [
        {
          "name": "transactionId",
          "type": "uint256"
        }
      ],
      "name": "executeTransaction",
      "outputs": [],
      "payable": false,
      "stateMutability": "nonpayable",
      "type": "function"
    },
    {
      "constant": true,
      "inputs": [
        {
          "name": "transactionId",
          "type": "uint256"
        }
      ],
      "name": "isConfirmed",
      "outputs": [
        {
          "name": "",
          "type": "bool"
        }
      ],
      "payable": false,
      "stateMutability": "view",
      "type": "function"
    },
    {
      "constant": true,
      "inputs": [
        {
          "name": "transactionId",
          "type": "uint256"
        }
      ],
      "name": "getConfirmationCount",
      "outputs": [
        {
          "name": "count",
          "type": "uint256"
        }
      ],
      "payable": false,
      "stateMutability": "view",
      "type": "function"
    },
    {
      "constant": true,
      "inputs": [
        {
          "name": "pending",
          "type": "bool"
        },
        {
          "name": "executed",
          "type": "bool"
        }
      ],
      "name": "getTransactionCount",
      "outputs": [
        {
          "name": "count",
          "type": "uint256"
        }
      ],
      "payable": false,
      "stateMutability": "view",
      "type": "function"
    },
    {
      "constant": true,
      "inputs": [],
      "name": "getOwners",
      "outputs": [
        {
          "name": "",
          "type": "address[]"
        }
      ],
      "payable": false,
      "stateMutability": "view",
      "type": "function"
    },
    {
      "constant": true,
      "inputs": [
        {
          "name": "transactionId",
          "type": "uint256"
        }
      ],
      "name": "getConfirmations",
      "outputs": [
        {
          "name": "_confirmations",
          "type": "address[]"
        }
      ],
      "payable": false,
      "stateMutability": "view",
      "type": "function"
    },
    {
      "constant": true,
      "inputs": [
        {
          "name": "from",
          "type": "uint256"
        },
        {
          "name": "to",
          "type": "uint256"
        },
        {
          "name": "pending",
          "type": "bool"
        },
        {
          "name": "executed",
          "type": "bool"
        }
      ],
      "name": "getTransactionIds",
      "outputs": [
        {
          "name": "_transactionIds",
          "type": "uint256[]"
        }
      ],
      "payable": false,
      "stateMutability": "view",
      "type": "function"
    },
    {
      "constant": false,
      "inputs": [
        {
          "name": "_newCount",
          "type": "uint256"
        }
      ],
      "name": "ChangeMaxOwnerCount",
      "outputs": [
        {
          "name": "",
          "type": "bool"
        }
      ],
      "payable": false,
      "stateMutability": "nonpayable",
      "type": "function"
    }
  ],
  "bytecode": "0x60806040523480156200001157600080fd5b50604051620028fe380380620028fe833981018060405260608110156200003757600080fd5b810190808051906020019092919080516401000000008111156200005a57600080fd5b828101905060208101848111156200007157600080fd5b81518560208202830111640100000000821117156200008f57600080fd5b50509291906020018051906020019092919050505081518382818311158015620000b95750828111155b8015620000c7575060008114155b8015620000d5575060008314155b1515620000e157600080fd5b856006819055508360048190555033600760006101000a81548173ffffffffffffffffffffffffffffffffffffffff021916908373ffffffffffffffffffffffffffffffffffffffff16021790555060008090505b855181101562000282576002600087838151811015156200015357fe5b9060200190602002015173ffffffffffffffffffffffffffffffffffffffff1673ffffffffffffffffffffffffffffffffffffffff16815260200190815260200160002060009054906101000a900460ff16158015620001f85750600073ffffffffffffffffffffffffffffffffffffffff168682815181101515620001d557fe5b9060200190602002015173ffffffffffffffffffffffffffffffffffffffff1614155b15156200020457600080fd5b60016002600088848151811015156200021957fe5b9060200190602002015173ffffffffffffffffffffffffffffffffffffffff1673ffffffffffffffffffffffffffffffffffffffff16815260200190815260200160002060006101000a81548160ff021916908315150217905550808060010191505062000136565b5084600390805190602001906200029b929190620002a8565b505050505050506200037d565b82805482825590600052602060002090810192821562000324579160200282015b82811115620003235782518260006101000a81548173ffffffffffffffffffffffffffffffffffffffff021916908373ffffffffffffffffffffffffffffffffffffffff16021790555091602001919060010190620002c9565b5b50905062000333919062000337565b5090565b6200037a91905b808211156200037657600081816101000a81549073ffffffffffffffffffffffffffffffffffffffff0219169055506001016200033e565b5090565b90565b612571806200038d6000396000f3fe608060405260043610610133576000357c0100000000000000000000000000000000000000000000000000000000900463ffffffff168063025e7c271461018d578063173825d91461020857806320ea8d86146102595780632f54bf6e146102945780633411c81c146102fd57806354741525146103705780637065cb48146103cd578063784547a71461041e5780638b51d13f146104715780639ace38c2146104c0578063a0e67e2b146105b9578063a8abe69a14610625578063ac92e6b7146106d7578063b5dc40c31461072a578063b77bf600146107ba578063ba51a6df146107e5578063c01a8c8414610820578063c64274741461085b578063ce606ee014610961578063d74f8edd146109b8578063dc8452cd146109e3578063e20056e614610a0e578063ee22610b14610a7f575b600034111561018b573373ffffffffffffffffffffffffffffffffffffffff167fe1fffcc4923d04b559f4d29a8bfc6cda04eb5b0d3c460751c2402c5c5cc9109c346040518082815260200191505060405180910390a25b005b34801561019957600080fd5b506101c6600480360360208110156101b057600080fd5b8101908080359060200190929190505050610aba565b604051808273ffffffffffffffffffffffffffffffffffffffff1673ffffffffffffffffffffffffffffffffffffffff16815260200191505060405180910390f35b34801561021457600080fd5b506102576004803603602081101561022b57600080fd5b81019080803573ffffffffffffffffffffffffffffffffffffffff169060200190929190505050610af8565b005b34801561026557600080fd5b506102926004803603602081101561027c57600080fd5b8101908080359060200190929190505050610db2565b005b3480156102a057600080fd5b506102e3600480360360208110156102b757600080fd5b81019080803573ffffffffffffffffffffffffffffffffffffffff169060200190929190505050610f5a565b604051808215151515815260200191505060405180910390f35b34801561030957600080fd5b506103566004803603604081101561032057600080fd5b8101908080359060200190929190803573ffffffffffffffffffffffffffffffffffffffff169060200190929190505050610f7a565b604051808215151515815260200191505060405180910390f35b34801561037c57600080fd5b506103b76004803603604081101561039357600080fd5b81019080803515159060200190929190803515159060200190929190505050610fa9565b6040518082815260200191505060405180910390f35b3480156103d957600080fd5b5061041c600480360360208110156103f057600080fd5b81019080803573ffffffffffffffffffffffffffffffffffffffff16906020019092919050505061103b565b005b34801561042a57600080fd5b506104576004803603602081101561044157600080fd5b8101908080359060200190929190505050611279565b604051808215151515815260200191505060405180910390f35b34801561047d57600080fd5b506104aa6004803603602081101561049457600080fd5b8101908080359060200190929190505050611360565b6040518082815260200191505060405180910390f35b3480156104cc57600080fd5b506104f9600480360360208110156104e357600080fd5b810190808035906020019092919050505061142b565b604051808573ffffffffffffffffffffffffffffffffffffffff1673ffffffffffffffffffffffffffffffffffffffff1681526020018481526020018060200183151515158152602001828103825284818151815260200191508051906020019080838360005b8381101561057b578082015181840152602081019050610560565b50505050905090810190601f1680156105a85780820380516001836020036101000a031916815260200191505b509550505050505060405180910390f35b3480156105c557600080fd5b506105ce611520565b6040518080602001828103825283818151815260200191508051906020019060200280838360005b838110156106115780820151818401526020810190506105f6565b505050509050019250505060405180910390f35b34801561063157600080fd5b506106806004803603608081101561064857600080fd5b8101908080359060200190929190803590602001909291908035151590602001909291908035151590602001909291905050506115ae565b6040518080602001828103825283818151815260200191508051906020019060200280838360005b838110156106c35780820151818401526020810190506106a8565b505050509050019250505060405180910390f35b3480156106e357600080fd5b50610710600480360360208110156106fa57600080fd5b810190808035906020019092919050505061171e565b604051808215151515815260200191505060405180910390f35b34801561073657600080fd5b506107636004803603602081101561074d57600080fd5b81019080803590602001909291905050506117a4565b6040518080602001828103825283818151815260200191508051906020019060200280838360005b838110156107a657808201518184015260208101905061078b565b505050509050019250505060405180910390f35b3480156107c657600080fd5b506107cf6119e0565b6040518082815260200191505060405180910390f35b3480156107f157600080fd5b5061081e6004803603602081101561080857600080fd5b81019080803590602001909291905050506119e6565b005b34801561082c57600080fd5b506108596004803603602081101561084357600080fd5b8101908080359060200190929190505050611ac3565b005b34801561086757600080fd5b5061094b6004803603606081101561087e57600080fd5b81019080803573ffffffffffffffffffffffffffffffffffffffff16906020019092919080359060200190929190803590602001906401000000008111156108c557600080fd5b8201836020820111156108d757600080fd5b803590602001918460018302840111640100000000831117156108f957600080fd5b91908080601f016020809104026020016040519081016040528093929190818152602001838380828437600081840152601f19601f820116905080830192505050505050509192919290505050611cb6565b6040518082815260200191505060405180910390f35b34801561096d57600080fd5b50610976611cd5565b604051808273ffffffffffffffffffffffffffffffffffffffff1673ffffffffffffffffffffffffffffffffffffffff16815260200191505060405180910390f35b3480156109c457600080fd5b506109cd611cfb565b6040518082815260200191505060405180910390f35b3480156109ef57600080fd5b506109f8611d01565b6040518082815260200191505060405180910390f35b348015610a1a57600080fd5b50610a7d60048036036040811015610a3157600080fd5b81019080803573ffffffffffffffffffffffffffffffffffffffff169060200190929190803573ffffffffffffffffffffffffffffffffffffffff169060200190929190505050611d07565b005b348015610a8b57600080fd5b50610ab860048036036020811015610aa257600080fd5b810190808035906020019092919050505061203d565b005b600381815481101515610ac957fe5b906000526020600020016000915054906101000a900473ffffffffffffffffffffffffffffffffffffffff1681565b600760009054906101000a900473ffffffffffffffffffffffffffffffffffffffff1673ffffffffffffffffffffffffffffffffffffffff163373ffffffffffffffffffffffffffffffffffffffff16141515610b5457600080fd5b80600260008273ffffffffffffffffffffffffffffffffffffffff1673ffffffffffffffffffffffffffffffffffffffff16815260200190815260200160002060009054906101000a900460ff161515610bad57600080fd5b6000600260008473ffffffffffffffffffffffffffffffffffffffff1673ffffffffffffffffffffffffffffffffffffffff16815260200190815260200160002060006101000a81548160ff02191690831515021790555060008090505b600160038054905003811015610d33578273ffffffffffffffffffffffffffffffffffffffff16600382815481101515610c4157fe5b9060005260206000200160009054906101000a900473ffffffffffffffffffffffffffffffffffffffff1673ffffffffffffffffffffffffffffffffffffffff161415610d26576003600160038054905003815481101515610c9f57fe5b9060005260206000200160009054906101000a900473ffffffffffffffffffffffffffffffffffffffff16600382815481101515610cd957fe5b9060005260206000200160006101000a81548173ffffffffffffffffffffffffffffffffffffffff021916908373ffffffffffffffffffffffffffffffffffffffff160217905550610d33565b8080600101915050610c0b565b506001600381818054905003915081610d4c9190612474565b506003805490506004541115610d6b57610d6a6003805490506119e6565b5b8173ffffffffffffffffffffffffffffffffffffffff167f8001553a916ef2f495d26a907cc54d96ed840d7bda71e73194bf5a9df7a76b9060405160405180910390a25050565b33600260008273ffffffffffffffffffffffffffffffffffffffff1673ffffffffffffffffffffffffffffffffffffffff16815260200190815260200160002060009054906101000a900460ff161515610e0b57600080fd5b81336001600083815260200190815260200160002060008273ffffffffffffffffffffffffffffffffffffffff1673ffffffffffffffffffffffffffffffffffffffff16815260200190815260200160002060009054906101000a900460ff161515610e7657600080fd5b8360008082815260200190815260200160002060030160009054906101000a900460ff16151515610ea657600080fd5b60006001600087815260200190815260200160002060003373ffffffffffffffffffffffffffffffffffffffff1673ffffffffffffffffffffffffffffffffffffffff16815260200190815260200160002060006101000a81548160ff021916908315150217905550843373ffffffffffffffffffffffffffffffffffffffff167ff6a317157440607f36269043eb55f1287a5a19ba2216afeab88cd46cbcfb88e960405160405180910390a35050505050565b60026020528060005260406000206000915054906101000a900460ff1681565b60016020528160005260406000206020528060005260406000206000915091509054906101000a900460ff1681565b600080600090505b60055481101561103457838015610fe8575060008082815260200190815260200160002060030160009054906101000a900460ff16155b8061101b575082801561101a575060008082815260200190815260200160002060030160009054906101000a900460ff165b5b15611027576001820191505b8080600101915050610fb1565b5092915050565b600760009054906101000a900473ffffffffffffffffffffffffffffffffffffffff1673ffffffffffffffffffffffffffffffffffffffff163373ffffffffffffffffffffffffffffffffffffffff1614151561109757600080fd5b80600260008273ffffffffffffffffffffffffffffffffffffffff1673ffffffffffffffffffffffffffffffffffffffff16815260200190815260200160002060009054906101000a900460ff161515156110f157600080fd5b81600073ffffffffffffffffffffffffffffffffffffffff168173ffffffffffffffffffffffffffffffffffffffff161415151561112e57600080fd5b600160038054905001600454600654821115801561114c5750818111155b8015611159575060008114155b8015611166575060008214155b151561117157600080fd5b6001600260008773ffffffffffffffffffffffffffffffffffffffff1673ffffffffffffffffffffffffffffffffffffffff16815260200190815260200160002060006101000a81548160ff02191690831515021790555060038590806001815401808255809150509060018203906000526020600020016000909192909190916101000a81548173ffffffffffffffffffffffffffffffffffffffff021916908373ffffffffffffffffffffffffffffffffffffffff160217905550508473ffffffffffffffffffffffffffffffffffffffff167ff39e6e1eb0edcf53c221607b54b00cd28f3196fed0a24994dc308b8f611b682d60405160405180910390a25050505050565b6000806000905060008090505b600380549050811015611358576001600085815260200190815260200160002060006003838154811015156112b757fe5b9060005260206000200160009054906101000a900473ffffffffffffffffffffffffffffffffffffffff1673ffffffffffffffffffffffffffffffffffffffff1673ffffffffffffffffffffffffffffffffffffffff16815260200190815260200160002060009054906101000a900460ff1615611336576001820191505b60045482141561134b5760019250505061135b565b8080600101915050611286565b50505b919050565b600080600090505b6003805490508110156114255760016000848152602001908152602001600020600060038381548110151561139957fe5b9060005260206000200160009054906101000a900473ffffffffffffffffffffffffffffffffffffffff1673ffffffffffffffffffffffffffffffffffffffff1673ffffffffffffffffffffffffffffffffffffffff16815260200190815260200160002060009054906101000a900460ff1615611418576001820191505b8080600101915050611368565b50919050565b60006020528060005260406000206000915090508060000160009054906101000a900473ffffffffffffffffffffffffffffffffffffffff1690806001015490806002018054600181600116156101000203166002900480601f0160208091040260200160405190810160405280929190818152602001828054600181600116156101000203166002900480156115035780601f106114d857610100808354040283529160200191611503565b820191906000526020600020905b8154815290600101906020018083116114e657829003601f168201915b5050505050908060030160009054906101000a900460ff16905084565b606060038054806020026020016040519081016040528092919081815260200182805480156115a457602002820191906000526020600020905b8160009054906101000a900473ffffffffffffffffffffffffffffffffffffffff1673ffffffffffffffffffffffffffffffffffffffff168152602001906001019080831161155a575b5050505050905090565b6060806005546040519080825280602002602001820160405280156115e25781602001602082028038833980820191505090505b509050600080905060008090505b60055481101561169057858015611627575060008082815260200190815260200160002060030160009054906101000a900460ff16155b8061165a5750848015611659575060008082815260200190815260200160002060030160009054906101000a900460ff165b5b156116835780838381518110151561166e57fe5b90602001906020020181815250506001820191505b80806001019150506115f0565b8787036040519080825280602002602001820160405280156116c15781602001602082028038833980820191505090505b5093508790505b868110156117135782818151811015156116de57fe5b90602001906020020151848983038151811015156116f857fe5b906020019060200201818152505080806001019150506116c8565b505050949350505050565b6000600760009054906101000a900473ffffffffffffffffffffffffffffffffffffffff1673ffffffffffffffffffffffffffffffffffffffff163373ffffffffffffffffffffffffffffffffffffffff1614151561177c57600080fd5b6003805490508210151561179a57816006819055506001905061179f565b600090505b919050565b6060806003805490506040519080825280602002602001820160405280156117db5781602001602082028038833980820191505090505b509050600080905060008090505b60038054905081101561192a5760016000868152602001908152602001600020600060038381548110151561181a57fe5b9060005260206000200160009054906101000a900473ffffffffffffffffffffffffffffffffffffffff1673ffffffffffffffffffffffffffffffffffffffff1673ffffffffffffffffffffffffffffffffffffffff16815260200190815260200160002060009054906101000a900460ff161561191d576003818154811015156118a157fe5b9060005260206000200160009054906101000a900473ffffffffffffffffffffffffffffffffffffffff1683838151811015156118da57fe5b9060200190602002019073ffffffffffffffffffffffffffffffffffffffff16908173ffffffffffffffffffffffffffffffffffffffff16815250506001820191505b80806001019150506117e9565b816040519080825280602002602001820160405280156119595781602001602082028038833980820191505090505b509350600090505b818110156119d857828181518110151561197757fe5b90602001906020020151848281518110151561198f57fe5b9060200190602002019073ffffffffffffffffffffffffffffffffffffffff16908173ffffffffffffffffffffffffffffffffffffffff16815250508080600101915050611961565b505050919050565b60055481565b600760009054906101000a900473ffffffffffffffffffffffffffffffffffffffff1673ffffffffffffffffffffffffffffffffffffffff163373ffffffffffffffffffffffffffffffffffffffff16141515611a4257600080fd5b600380549050816006548211158015611a5b5750818111155b8015611a68575060008114155b8015611a75575060008214155b1515611a8057600080fd5b826004819055507fa3f1ee9126a074d9326c682f561767f710e927faa811f7a99829d49dc421797a836040518082815260200191505060405180910390a1505050565b33600260008273ffffffffffffffffffffffffffffffffffffffff1673ffffffffffffffffffffffffffffffffffffffff16815260200190815260200160002060009054906101000a900460ff161515611b1c57600080fd5b81600073ffffffffffffffffffffffffffffffffffffffff1660008083815260200190815260200160002060000160009054906101000a900473ffffffffffffffffffffffffffffffffffffffff1673ffffffffffffffffffffffffffffffffffffffff1614151515611b8e57600080fd5b82336001600083815260200190815260200160002060008273ffffffffffffffffffffffffffffffffffffffff1673ffffffffffffffffffffffffffffffffffffffff16815260200190815260200160002060009054906101000a900460ff16151515611bfa57600080fd5b600180600087815260200190815260200160002060003373ffffffffffffffffffffffffffffffffffffffff1673ffffffffffffffffffffffffffffffffffffffff16815260200190815260200160002060006101000a81548160ff021916908315150217905550843373ffffffffffffffffffffffffffffffffffffffff167f4a504a94899432a9846e1aa406dceb1bcfd538bb839071d49d1e5e23f5be30ef60405160405180910390a3611caf8561203d565b5050505050565b6000611cc38484846122e5565b9050611cce81611ac3565b9392505050565b600760009054906101000a900473ffffffffffffffffffffffffffffffffffffffff1681565b60065481565b60045481565b600760009054906101000a900473ffffffffffffffffffffffffffffffffffffffff1673ffffffffffffffffffffffffffffffffffffffff163373ffffffffffffffffffffffffffffffffffffffff16141515611d6357600080fd5b81600260008273ffffffffffffffffffffffffffffffffffffffff1673ffffffffffffffffffffffffffffffffffffffff16815260200190815260200160002060009054906101000a900460ff161515611dbc57600080fd5b81600260008273ffffffffffffffffffffffffffffffffffffffff1673ffffffffffffffffffffffffffffffffffffffff16815260200190815260200160002060009054906101000a900460ff16151515611e1657600080fd5b60008090505b600380549050811015611f00578473ffffffffffffffffffffffffffffffffffffffff16600382815481101515611e4f57fe5b9060005260206000200160009054906101000a900473ffffffffffffffffffffffffffffffffffffffff1673ffffffffffffffffffffffffffffffffffffffff161415611ef35783600382815481101515611ea657fe5b9060005260206000200160006101000a81548173ffffffffffffffffffffffffffffffffffffffff021916908373ffffffffffffffffffffffffffffffffffffffff160217905550611f00565b8080600101915050611e1c565b506000600260008673ffffffffffffffffffffffffffffffffffffffff1673ffffffffffffffffffffffffffffffffffffffff16815260200190815260200160002060006101000a81548160ff0219169083151502179055506001600260008573ffffffffffffffffffffffffffffffffffffffff1673ffffffffffffffffffffffffffffffffffffffff16815260200190815260200160002060006101000a81548160ff0219169083151502179055508373ffffffffffffffffffffffffffffffffffffffff167f8001553a916ef2f495d26a907cc54d96ed840d7bda71e73194bf5a9df7a76b9060405160405180910390a28273ffffffffffffffffffffffffffffffffffffffff167ff39e6e1eb0edcf53c221607b54b00cd28f3196fed0a24994dc308b8f611b682d60405160405180910390a250505050565b33600260008273ffffffffffffffffffffffffffffffffffffffff1673ffffffffffffffffffffffffffffffffffffffff16815260200190815260200160002060009054906101000a900460ff16151561209657600080fd5b81336001600083815260200190815260200160002060008273ffffffffffffffffffffffffffffffffffffffff1673ffffffffffffffffffffffffffffffffffffffff16815260200190815260200160002060009054906101000a900460ff16151561210157600080fd5b8360008082815260200190815260200160002060030160009054906101000a900460ff1615151561213157600080fd5b61213a85611279565b156122de576000806000878152602001908152602001600020905060018160030160006101000a81548160ff02191690831515021790555061225a8160000160009054906101000a900473ffffffffffffffffffffffffffffffffffffffff16826001015483600201805460018160011615610100020316600290049050846002018054600181600116156101000203166002900480601f0160208091040260200160405190810160405280929190818152602001828054600181600116156101000203166002900480156122505780601f1061222557610100808354040283529160200191612250565b820191906000526020600020905b81548152906001019060200180831161223357829003601f168201915b505050505061244d565b1561229157857f33e13ecb54c3076d8e8bb8c2881800a4d972b792045ffae98fdf46df365fed7560405160405180910390a26122dc565b857f526441bb6c1aba3c9a4a6ca1d6545da9c2333c8c48343ef398eb858d72b7923660405160405180910390a260008160030160006101000a81548160ff0219169083151502179055505b505b5050505050565b600083600073ffffffffffffffffffffffffffffffffffffffff168173ffffffffffffffffffffffffffffffffffffffff161415151561232457600080fd5b60055491506080604051908101604052808673ffffffffffffffffffffffffffffffffffffffff1681526020018581526020018481526020016000151581525060008084815260200190815260200160002060008201518160000160006101000a81548173ffffffffffffffffffffffffffffffffffffffff021916908373ffffffffffffffffffffffffffffffffffffffff1602179055506020820151816001015560408201518160020190805190602001906123e39291906124a0565b5060608201518160030160006101000a81548160ff0219169083151502179055509050506001600560008282540192505081905550817fc0ba8fe4b176c1714197d43b9cc6bcf797a4a7461c5fe8d0ef6e184ae7601e5160405160405180910390a2509392505050565b6000806040516020840160008287838a8c6187965a03f19250505080915050949350505050565b81548183558181111561249b5781836000526020600020918201910161249a9190612520565b5b505050565b828054600181600116156101000203166002900490600052602060002090601f016020900481019282601f106124e157805160ff191683800117855561250f565b8280016001018555821561250f579182015b8281111561250e5782518255916020019190600101906124f3565b5b50905061251c9190612520565b5090565b61254291905b8082111561253e576000816000905550600101612526565b5090565b9056fea165627a7a72305820792fbffb425719f4276ed59f1c348c37436a97f7aba894ac2cc11aaf4c4cf17b0029",
  "source": "pragma solidity ^0.5.0;\n\n\ncontract simpleWallet {\n\n    /*\n     *  Events\n     */\n    event Confirmation(address indexed sender, uint indexed transactionId);\n    event Revocation(address indexed sender, uint indexed transactionId);\n    event Submission(uint indexed transactionId);\n    event Execution(uint indexed transactionId);\n    event ExecutionFailure(uint indexed transactionId);\n    event Deposit(address indexed sender, uint value);\n    event OwnerAddition(address indexed owner);\n    event OwnerRemoval(address indexed owner);\n    event RequirementChange(uint required);\n\n    /*\n     *  Storage\n     */\n    mapping (uint => Transaction) public transactions;\n    mapping (uint => mapping (address => bool)) public confirmations;\n    mapping (address => bool) public isOwner;\n    address[] public owners;\n    uint public required;\n    uint public transactionCount;\n    uint256  public MAX_OWNER_COUNT;\n    address public contractOwner;\n\n    struct Transaction {\n        address destination;\n        uint value;\n        bytes data;\n        bool executed;\n    }\n\n    /*\n     *  Modifiers\n     */\n    modifier onlyWalletOwner() {\n        require(msg.sender == contractOwner);\n        _;\n    }\n\n    modifier ownerDoesNotExist(address owner) {\n        require(!isOwner[owner]);\n        _;\n    }\n\n    modifier ownerExists(address owner) {\n        require(isOwner[owner]);\n        _;\n    }\n\n    modifier transactionExists(uint transactionId) {\n        require(transactions[transactionId].destination != address(0));\n        _;\n    }\n\n    modifier confirmed(uint transactionId, address owner) {\n        require(confirmations[transactionId][owner]);\n        _;\n    }\n\n    modifier notConfirmed(uint transactionId, address owner) {\n        require(!confirmations[transactionId][owner]);\n        _;\n    }\n\n    modifier notExecuted(uint transactionId) {\n        require(!transactions[transactionId].executed);\n        _;\n    }\n\n    modifier notNull(address _address) {\n        require(_address != address(0));\n        _;\n    }\n\n    modifier validRequirement(uint ownerCount, uint _required) {\n        require(ownerCount <= MAX_OWNER_COUNT\n            && _required <= ownerCount\n            && _required != 0\n            && ownerCount != 0);\n        _;\n    }\n\n    modifier validArguement(uint ownerCount,uint _maxowners ,uint _required ) {\n        require(ownerCount <= _maxowners\n            && _required <= ownerCount\n            && _required != 0\n            && ownerCount != 0);\n            _;\n    }\n\n    /// @dev Fallback function allows to deposit ether.\n    function()\n        external\n        payable\n    {\n        if (msg.value > 0)\n            emit Deposit(msg.sender, msg.value);\n    }\n\n    /*\n     * Public functions\n     */\n    /// @dev Contract constructor sets initial owners and required number of confirmations.\n    /// @param _owners List of initial owners.\n    /// @param _required Number of required confirmations.\n    constructor(uint256 _maxowners,address[] memory _owners, uint256 _required)\n        public\n        validArguement(_owners.length, _maxowners , _required)\n    {\n        MAX_OWNER_COUNT = _maxowners;   \n        required = _required;\n        contractOwner = msg.sender;\n        for (uint i=0; i<_owners.length; i++) {\n            require(!isOwner[_owners[i]] && _owners[i] != address(0));\n            isOwner[_owners[i]] = true;\n        }\n        owners = _owners;\n    }\n\n\n    /// @dev Allows to add a new owner. Transaction has to be sent by wallet.\n    /// @param owner Address of new owner.\n    function addOwner(address owner)\n        public\n        onlyWalletOwner\n        ownerDoesNotExist(owner)\n        notNull(owner)\n        validRequirement(owners.length + 1, required)\n    {\n        isOwner[owner] = true;\n        owners.push(owner);\n        emit OwnerAddition(owner);\n    }\n\n    /// @dev Allows to remove an owner. Transaction has to be sent by wallet.\n    /// @param owner Address of owner.\n    function removeOwner(address owner)\n        public\n        onlyWalletOwner\n        ownerExists(owner)\n    {\n        isOwner[owner] = false;\n        for (uint i=0; i<owners.length - 1; i++)\n            if (owners[i] == owner) {\n                owners[i] = owners[owners.length - 1];\n                break;\n            }\n        owners.length -= 1;\n        if (required > owners.length)\n            changeRequirement(owners.length);\n        emit OwnerRemoval(owner);\n    }\n\n    /// @dev Allows to replace an owner with a new owner. Transaction has to be sent by wallet.\n    /// @param owner Address of owner to be replaced.\n    /// @param newOwner Address of new owner.\n    function replaceOwner(address owner, address newOwner)\n        public\n        onlyWalletOwner\n        ownerExists(owner)\n        ownerDoesNotExist(newOwner)\n    {\n        for (uint i=0; i<owners.length; i++)\n            if (owners[i] == owner) {\n                owners[i] = newOwner;\n                break;\n            }\n        isOwner[owner] = false;\n        isOwner[newOwner] = true;\n        emit OwnerRemoval(owner);\n        emit OwnerAddition(newOwner);\n    }\n\n    /// @dev Allows to change the number of required confirmations. Transaction has to be sent by wallet.\n    /// @param _required Number of required confirmations.\n    function changeRequirement(uint _required)\n        public\n        onlyWalletOwner\n        validRequirement(owners.length, _required)\n    {\n        required = _required;\n        emit RequirementChange(_required);\n    }\n\n    /// @dev Allows an owner to submit and confirm a transaction.\n    /// @param destination Transaction target address.\n    /// @param value Transaction ether value.\n    /// @param data Transaction data payload.\n    /// @return Returns transaction ID.\n    function submitTransaction(address destination, uint value, bytes memory data)\n        public\n        returns (uint transactionId)\n    {\n        transactionId = addTransaction(destination, value, data);\n        confirmTransaction(transactionId);\n    }\n\n    /// @dev Allows an owner to confirm a transaction.\n    /// @param transactionId Transaction ID.\n    function confirmTransaction(uint transactionId)\n        public\n        ownerExists(msg.sender)\n        transactionExists(transactionId)\n        notConfirmed(transactionId, msg.sender)\n    {\n        confirmations[transactionId][msg.sender] = true;\n        emit Confirmation(msg.sender, transactionId);\n        executeTransaction(transactionId);\n    }\n\n    /// @dev Allows an owner to revoke a confirmation for a transaction.\n    /// @param transactionId Transaction ID.\n    function revokeConfirmation(uint transactionId)\n        public\n        ownerExists(msg.sender)\n        confirmed(transactionId, msg.sender)\n        notExecuted(transactionId)\n    {\n        confirmations[transactionId][msg.sender] = false;\n        emit Revocation(msg.sender, transactionId);\n    }\n\n    /// @dev Allows anyone to execute a confirmed transaction.\n    /// @param transactionId Transaction ID.\n    function executeTransaction(uint transactionId)\n        public\n        ownerExists(msg.sender)\n        confirmed(transactionId, msg.sender)\n        notExecuted(transactionId)\n    {\n        if (isConfirmed(transactionId)) {\n            Transaction storage txn = transactions[transactionId];\n            txn.executed = true;\n            if (external_call(txn.destination, txn.value, txn.data.length, txn.data))\n                emit Execution(transactionId);\n            else {\n                emit ExecutionFailure(transactionId);\n                txn.executed = false;\n            }\n        }\n    }\n\n    // call has been separated into its own function in order to take advantage\n    // of the Solidity's code generator to produce a loop that copies tx.data into memory.\n    function external_call(address destination, uint value, uint dataLength, bytes memory data) private returns (bool) {\n        bool result;\n        assembly {\n            let x := mload(0x40)   // \"Allocate\" memory for output (0x40 is where \"free memory\" pointer is stored by convention)\n            let d := add(data, 32) // First 32 bytes are the padded length of data, so exclude that\n            result := call(\n                sub(gas, 34710),   // 34710 is the value that solidity is currently emitting\n                                   // It includes callGas (700) + callVeryLow (3, to pay for SUB) + callValueTransferGas (9000) +\n                                   // callNewAccountGas (25000, in case the destination address does not exist and needs creating)\n                destination,\n                value,\n                d,\n                dataLength,        // Size of the input (in bytes) - this is what fixes the padding problem\n                x,\n                0                  // Output is ignored, therefore the output size is zero\n            )\n        }\n        return result;\n    }\n\n    /// @dev Returns the confirmation status of a transaction.\n    /// @param transactionId Transaction ID.\n    /// @return Confirmation status.\n    function isConfirmed(uint transactionId)\n        public\n        view\n        returns (bool)\n    {\n        uint count = 0;\n        for (uint i=0; i<owners.length; i++) {\n            if (confirmations[transactionId][owners[i]])\n                count += 1;\n            if (count == required)\n                return true;\n        }\n    }\n\n    /*\n     * Internal functions\n     */\n    /// @dev Adds a new transaction to the transaction mapping, if transaction does not exist yet.\n    /// @param destination Transaction target address.\n    /// @param value Transaction ether value.\n    /// @param data Transaction data payload.\n    /// @return Returns transaction ID.\n    function addTransaction(address destination, uint value, bytes memory data)\n        internal\n        notNull(destination)\n        returns (uint transactionId)\n    {\n        transactionId = transactionCount;\n        transactions[transactionId] = Transaction({\n            destination: destination,\n            value: value,\n            data: data,\n            executed: false\n        });\n        transactionCount += 1;\n        emit Submission(transactionId);\n    }\n\n    /*\n     * Web3 call functions\n     */\n    /// @dev Returns number of confirmations of a transaction.\n    /// @param transactionId Transaction ID.\n    /// @return Number of confirmations.\n    function getConfirmationCount(uint transactionId)\n        public\n        view\n        returns (uint count)\n    {\n        for (uint i=0; i<owners.length; i++)\n            if (confirmations[transactionId][owners[i]])\n                count += 1;\n    }\n\n    /// @dev Returns total number of transactions after filers are applied.\n    /// @param pending Include pending transactions.\n    /// @param executed Include executed transactions.\n    /// @return Total number of transactions after filters are applied.\n    function getTransactionCount(bool pending, bool executed)\n        public\n        view\n        returns (uint count)\n    {\n        for (uint i=0; i<transactionCount; i++)\n            if (   pending && !transactions[i].executed\n                || executed && transactions[i].executed)\n                count += 1;\n    }\n\n    /// @dev Returns list of owners.\n    /// @return List of owner addresses.\n    function getOwners()\n        public\n        view\n        returns (address[] memory)\n    {\n        return owners;\n    }\n\n    /// @dev Returns array with owner addresses, which confirmed transaction.\n    /// @param transactionId Transaction ID.\n    /// @return Returns array of owner addresses.\n    function getConfirmations(uint transactionId)\n        public\n        view\n        returns (address[] memory _confirmations)\n    {\n        address[] memory confirmationsTemp = new address[](owners.length);\n        uint count = 0;\n        uint i;\n        for (i=0; i<owners.length; i++)\n            if (confirmations[transactionId][owners[i]]) {\n                confirmationsTemp[count] = owners[i];\n                count += 1;\n            }\n        _confirmations = new address[](count);\n        for (i=0; i<count; i++)\n            _confirmations[i] = confirmationsTemp[i];\n    }\n\n    /// @dev Returns list of transaction IDs in defined range.\n    /// @param from Index start position of transaction array.\n    /// @param to Index end position of transaction array.\n    /// @param pending Include pending transactions.\n    /// @param executed Include executed transactions.\n    /// @return Returns array of transaction IDs.\n    function getTransactionIds(uint from, uint to, bool pending, bool executed)\n        public\n        view\n        returns (uint[] memory _transactionIds)\n    {\n        uint[] memory transactionIdsTemp = new uint[](transactionCount);\n        uint count = 0;\n        uint i;\n        for (i=0; i<transactionCount; i++)\n            if (   pending && !transactions[i].executed\n                || executed && transactions[i].executed)\n            {\n                transactionIdsTemp[count] = i;\n                count += 1;\n            }\n        _transactionIds = new uint[](to - from);\n        for (i=from; i<to; i++)\n            _transactionIds[i - from] = transactionIdsTemp[i];\n    }\n\n\n    function ChangeMaxOwnerCount(uint256 _newCount) public onlyWalletOwner returns (bool){\n        if (_newCount >= owners.length) {\n            MAX_OWNER_COUNT = _newCount;\n            return true;\n        } else {\n\n            // either return false or can reduce to min size if the owner list \n            return false;\n        }\n    }\n}",
  "sourcePath": "/home/sagar/Desktop/solution/basic-multisig-wallet/contracts/simpleWallet.sol",
  "compiler": {
    "name": "solc",
    "version": "0.5.0+commit.1d4f565a.Emscripten.clang"
  },
  "schemaVersion": "3.0.6",
  "updatedAt": "2019-11-07T15:01:17.717Z",
  "devdoc": {
    "methods": {
      "addOwner(address)": {
        "details": "Allows to add a new owner. Transaction has to be sent by wallet.",
        "params": {
          "owner": "Address of new owner."
        }
      },
      "changeRequirement(uint256)": {
        "details": "Allows to change the number of required confirmations. Transaction has to be sent by wallet.",
        "params": {
          "_required": "Number of required confirmations."
        }
      },
      "confirmTransaction(uint256)": {
        "details": "Allows an owner to confirm a transaction.",
        "params": {
          "transactionId": "Transaction ID."
        }
      },
      "constructor": {
        "details": "Contract constructor sets initial owners and required number of confirmations.",
        "params": {
          "_owners": "List of initial owners.",
          "_required": "Number of required confirmations."
        }
      },
      "executeTransaction(uint256)": {
        "details": "Allows anyone to execute a confirmed transaction.",
        "params": {
          "transactionId": "Transaction ID."
        }
      },
      "getConfirmationCount(uint256)": {
        "details": "Returns number of confirmations of a transaction.",
        "params": {
          "transactionId": "Transaction ID."
        },
        "return": "Number of confirmations."
      },
      "getConfirmations(uint256)": {
        "details": "Returns array with owner addresses, which confirmed transaction.",
        "params": {
          "transactionId": "Transaction ID."
        },
        "return": "Returns array of owner addresses."
      },
      "getOwners()": {
        "details": "Returns list of owners.",
        "return": "List of owner addresses."
      },
      "getTransactionCount(bool,bool)": {
        "details": "Returns total number of transactions after filers are applied.",
        "params": {
          "executed": "Include executed transactions.",
          "pending": "Include pending transactions."
        },
        "return": "Total number of transactions after filters are applied."
      },
      "getTransactionIds(uint256,uint256,bool,bool)": {
        "details": "Returns list of transaction IDs in defined range.",
        "params": {
          "executed": "Include executed transactions.",
          "from": "Index start position of transaction array.",
          "pending": "Include pending transactions.",
          "to": "Index end position of transaction array."
        },
        "return": "Returns array of transaction IDs."
      },
      "isConfirmed(uint256)": {
        "details": "Returns the confirmation status of a transaction.",
        "params": {
          "transactionId": "Transaction ID."
        },
        "return": "Confirmation status."
      },
      "removeOwner(address)": {
        "details": "Allows to remove an owner. Transaction has to be sent by wallet.",
        "params": {
          "owner": "Address of owner."
        }
      },
      "replaceOwner(address,address)": {
        "details": "Allows to replace an owner with a new owner. Transaction has to be sent by wallet.",
        "params": {
          "newOwner": "Address of new owner.",
          "owner": "Address of owner to be replaced."
        }
      },
      "revokeConfirmation(uint256)": {
        "details": "Allows an owner to revoke a confirmation for a transaction.",
        "params": {
          "transactionId": "Transaction ID."
        }
      },
      "submitTransaction(address,uint256,bytes)": {
        "details": "Allows an owner to submit and confirm a transaction.",
        "params": {
          "data": "Transaction data payload.",
          "destination": "Transaction target address.",
          "value": "Transaction ether value."
        },
        "return": "Returns transaction ID."
      }
    }
  },
  "userdoc": {
    "methods": {}
  }
}